:10080000E0F0DF7E880878D8FEFFE000000040803E
:100810000304C83909090808F8F5F3F0E0E0F0CF5F
:100820000000881000F0909090FC90903000000044
:1008300000001009201F20231408142320000000AA
:1008400000800020E0000830C000020C7080000032
:10085000000000020300100C030040300E010000F5
:1008E100C2A18A907F027E001208F2D2A07F027E0E
:0108F1000006
:1008F200E4FDFCC3ED9FEC9E50070DBD00010C8092
:0F090200F2E4FFFE0FBF00010EEF640A4E70F526
:0109110022C3
:10096D00C2A2D2A1E4FBD2A07F02FE1208F2C2A065
:09097D00E47003D38001C350EBC8
:01098600224E
:0D098700AA0712096DC2A21208E1C2A02247
:100942007F647E001208F2D2A4D2A37F647E0012DA
:1009520008F27F3E1209877FB81209877FC0120909
:0B096200877F401209877F3F02098752
:0D099400AA0712096DD2A21208E1C2A0222A
:1008AC00C2A4C2A37FB81209877F40120987E4F55E
:1008BC0008E50824B8FF120987E4F9E92440FF127F
:1008CC000987E4FF12099409B940F00508E508C34B
:0408DC00940840DD5F
:0108E00022F5
:080860008F088D098A0A8B0B39
:10086800E4F9F50CE50824B829FF120987E50924FD
:1008780040FF120987E4F50CE975F010A47C002507
:100888000CFFEC35F0FEE50B2FF582E50A3EF5830B
:10089800E493FF120994050CE50CC3941040D909A0
:0308A800B902C1D1
:0108AB00222A
:100912001209421208ACC2A4D2A37A087B007D302D
:10092200E4FF120860D2A4C2A37A087B20E4FDFF90
:100932001208607A087B407D10E4FF12086080FE96
:030000000209A151
:0C09A100787FE4F6D8FD75810C02091285
:00000001FF
